{
  "contractName": "DEx",
  "abi": [
    {
      "constant": true,
      "inputs": [],
      "name": "ORDER",
      "outputs": [
        {
          "name": "",
          "type": "uint256"
        }
      ],
      "payable": false,
      "stateMutability": "view",
      "type": "function"
    },
    {
      "constant": false,
      "inputs": [
        {
          "name": "_alice",
          "type": "address"
        },
        {
          "name": "_plasmoid",
          "type": "address"
        },
        {
          "name": "_ethAmount",
          "type": "uint256"
        },
        {
          "name": "_btcAmount",
          "type": "uint256"
        },
        {
          "name": "_limeAmount",
          "type": "uint256"
        }
      ],
      "name": "openDEx",
      "outputs": [
        {
          "name": "",
          "type": "uint16"
        }
      ],
      "payable": false,
      "stateMutability": "nonpayable",
      "type": "function"
    },
    {
      "constant": false,
      "inputs": [
        {
          "name": "_order",
          "type": "uint256"
        },
        {
          "name": "_plasmoid",
          "type": "address"
        },
        {
          "name": "_ethAmount",
          "type": "uint256"
        },
        {
          "name": "_btcAmount",
          "type": "uint256"
        },
        {
          "name": "_fee",
          "type": "uint256"
        }
      ],
      "name": "inDepo",
      "outputs": [],
      "payable": false,
      "stateMutability": "nonpayable",
      "type": "function"
    },
    {
      "constant": false,
      "inputs": [
        {
          "name": "_order",
          "type": "uint256"
        }
      ],
      "name": "outDepo",
      "outputs": [],
      "payable": false,
      "stateMutability": "nonpayable",
      "type": "function"
    },
    {
      "constant": false,
      "inputs": [
        {
          "name": "_order",
          "type": "uint256"
        },
        {
          "name": "_alice",
          "type": "address"
        },
        {
          "name": "_plasmoid",
          "type": "address"
        },
        {
          "name": "_ethAmount",
          "type": "uint256"
        },
        {
          "name": "_btcAmount",
          "type": "uint256"
        },
        {
          "name": "_limeAmount",
          "type": "uint256"
        }
      ],
      "name": "closeDEx",
      "outputs": [],
      "payable": false,
      "stateMutability": "nonpayable",
      "type": "function"
    },
    {
      "constant": true,
      "inputs": [
        {
          "name": "_order",
          "type": "uint256"
        },
        {
          "name": "_alice",
          "type": "address"
        },
        {
          "name": "_plasmoid",
          "type": "address"
        },
        {
          "name": "_ethAmount",
          "type": "uint256"
        },
        {
          "name": "_btcAmount",
          "type": "uint256"
        },
        {
          "name": "_fee",
          "type": "uint256"
        }
      ],
      "name": "VERSION",
      "outputs": [
        {
          "name": "",
          "type": "string"
        }
      ],
      "payable": false,
      "stateMutability": "view",
      "type": "function"
    },
    {
      "constant": true,
      "inputs": [
        {
          "indexed": false,
          "name": "_order",
          "type": "uint256"
        },
        {
          "indexed": true,
          "name": "maker",
          "type": "address"
        },
        {
          "indexed": true,
          "name": "taker",
          "type": "address"
        },
        {
          "indexed": true,
          "name": "plasmoid",
          "type": "address"
        },
        {
          "indexed": false,
          "name": "ethAmount",
          "type": "uint256"
        },
        {
          "indexed": false,
          "name": "btcAmount",
          "type": "uint256"
        },
        {
          "indexed": false,
          "name": "pledgeLIMEAmount",
          "type": "uint256"
        }
      ],
      "name": "StartDEx",
      "outputs": [
        {
          "name": "",
          "type": "string"
        }
      ],
      "payable": false,
      "stateMutability": "view",
      "type": "event",
      "anonymous": false
    },
    {
      "anonymous": false,
      "inputs": [
        {
          "indexed": false,
          "name": "_order",
          "type": "uint256"
        },
        {
          "indexed": true,
          "name": "maker",
          "type": "address"
        },
        {
          "indexed": false,
          "name": "taker",
          "type": "address"
        },
        {
          "indexed": true,
          "name": "plasmoid",
          "type": "address"
        },
        {
          "indexed": false,
          "name": "ethAmount",
          "type": "uint256"
        },
        {
          "indexed": false,
          "name": "btcAmount",
          "type": "uint256"
        },
        {
          "indexed": false,
          "name": "pledgeLIMEAmount",
          "type": "uint256"
        },
        {
          "indexed": false,
          "name": "fee",
          "type": "uint256"
        }
      ],
      "name": "StopDEx",
      "type": "event"
    },
    {
      "anonymous": false,
      "inputs": [
        {
          "indexed": false,
          "name": "_order",
          "type": "uint256"
        },
        {
          "indexed": true,
          "name": "maker",
          "type": "address"
        },
        {
          "indexed": false,
          "name": "taker",
          "type": "address"
        },
        {
          "indexed": true,
          "name": "plasmoid",
          "type": "address"
        },
        {
          "indexed": false,
          "name": "ethAmount",
          "type": "uint256"
        },
        {
          "indexed": false,
          "name": "btcAmount",
          "type": "uint256"
        },
        {
          "indexed": false,
          "name": "fee",
          "type": "uint256"
        }
      ],
      "name": "InDepo",
      "type": "event"
    },
    {
      "anonymous": false,
      "inputs": [
        {
          "indexed": false,
          "name": "_order",
          "type": "uint256"
        }
      ],
      "name": "OutDepo",
      "type": "event"
    },
    {
      "anonymous": false,
      "inputs": [
        {
          "indexed": false,
          "name": "_order",
          "type": "uint256"
        }
      ],
      "name": "OutDepo",
      "type": "event"
    }
  ],
  "bytecode": "0x606060405260008055341561001357600080fd5b6104aa806100226000396000f300606060405260043610610078576000357c0100000000000000000000000000000000000000000000000000000000900463ffffffff1680634d5e07fb1461007d57806374c1a945146100a65780637fc9ce991461011957806382a08d181461013c578063f5c8a1c51461015f578063ffa1ad74146101db575b600080fd5b341561008857600080fd5b610090610269565b6040518082815260200191505060405180910390f35b34156100b157600080fd5b610117600480803573ffffffffffffffffffffffffffffffffffffffff1690602001909190803573ffffffffffffffffffffffffffffffffffffffff1690602001909190803590602001909190803590602001909190803590602001909190505061026f565b005b341561012457600080fd5b61013a6004808035906020019091905050610318565b005b341561014757600080fd5b61015d6004808035906020019091905050610352565b005b341561016a57600080fd5b6101d9600480803590602001909190803573ffffffffffffffffffffffffffffffffffffffff1690602001909190803573ffffffffffffffffffffffffffffffffffffffff1690602001909190803590602001909190803590602001909190803590602001909190505061038c565b005b34156101e657600080fd5b6101ee610445565b6040518080602001828103825283818151815260200191508051906020019080838360005b8381101561022e578082015181840152602081019050610213565b50505050905090810190601f16801561025b5780820380516001836020036101000a031916815260200191505b509250505060405180910390f35b60005481565b6001600054016000819055508373ffffffffffffffffffffffffffffffffffffffff163373ffffffffffffffffffffffffffffffffffffffff168673ffffffffffffffffffffffffffffffffffffffff167f89b841109ffd2491980402d6703735199081fd766855d5534db7582f04a712646000548787876040518085815260200184815260200183815260200182815260200194505050505060405180910390a45050505050565b7f91c1b904ae27e44d7325e07baf8e32e7169d3aadb7cb29aa131bd8fd5d1cf28e816040518082815260200191505060405180910390a150565b7ff9074e272d6a00bd48cee62fa9e0161003ecf116088ab92742191dc875577876816040518082815260200191505060405180910390a150565b8373ffffffffffffffffffffffffffffffffffffffff168573ffffffffffffffffffffffffffffffffffffffff167f2461e5512ed7d1d2b4d8fd2a8bc8e60878a5a934bd6bbbeb97726b73a7e94dac8833878787604051808681526020018573ffffffffffffffffffffffffffffffffffffffff1673ffffffffffffffffffffffffffffffffffffffff1681526020018481526020018381526020018281526020019550505050505060405180910390a3505050505050565b6040805190810160405280600381526020017f302e320000000000000000000000000000000000000000000000000000000000815250815600a165627a7a72305820be32b45ab2a2bd61ae7fc234e0aaf9105ba1dd4e923d7a6c268a883c79f165bf0029",
  "source": "/*\r\n\r\n  Copyright 2017 Limex inc.\r\n\r\n  Licensed under the Apache License, Version 2.0 (the \"License\");\r\n  you may not use this file except in compliance with the License.\r\n  You may obtain a copy of the License at\r\n\r\n    http://www.apache.org/licenses/LICENSE-2.0\r\n\r\n  Unless required by applicable law or agreed to in writing, software\r\n  distributed under the License is distributed on an \"AS IS\" BASIS,\r\n  WITHOUT WARRANTIES OR CONDITIONS OF ANY KIND, either express or implied.\r\n  See the License for the specific language governing permissions and\r\n  limitations under the License.\r\n\r\n*/\r\n\r\npragma solidity 0.4.18;\r\n\r\n/// @title DEx - Decentalized exchange of ETH/BTC by Limex protocol.\r\n/// @author Oleg Tomin - <ot@limex.io>\r\n/// Simple test for ETH/BTC crossshain direct exchange\r\n\r\ncontract DEx {\r\n\r\n    string constant public VERSION = \"0.2\";     // 09.12.2017\r\n\r\n    uint public ORDER = 0;  // Serial order number\r\n\r\n    event StartDEx(         // Record a log of all exchanges\r\n        uint _order,\r\n        address indexed maker,\r\n        address indexed taker,\r\n        address indexed plasmoid,\r\n        uint ethAmount,\r\n        uint btcAmount,\r\n        uint pledgeLIMEAmount\r\n    );\r\n\r\n    event StopDEx(          //  Record a log of successful exchanges\r\n        uint _order,\r\n        address indexed maker,\r\n        address taker,\r\n        address indexed plasmoid,\r\n        uint ethAmount,\r\n        uint btcAmount,\r\n        uint pledgeLIMEAmount\r\n    );\r\n\r\n    event InDepo(uint _order);  //  Record a log of successful placements of pledges\r\n\r\n    event OutDepo(uint _order); //  Record a log of successful cancellations of pledges\r\n\r\n    /*\r\n    * Start exchange function - Bob's call\r\n    */\r\n\r\n    function openDEx(address _alice, address _plasmoid, uint _ethAmount, uint _btcAmount, uint _limeAmount) public {\r\n        ORDER = ORDER + 1;\r\n        StartDEx(ORDER, _alice, msg.sender, _plasmoid, _ethAmount, _btcAmount, _limeAmount);\r\n    }\r\n\r\n    /*\r\n    * Work with pledges functions - Plasmoid's call\r\n    */\r\n\r\n    function inDepo(uint _order) public {\r\n        InDepo(_order);\r\n    }\r\n\r\n    function outDepo(uint _order) public {\r\n        OutDepo(_order);\r\n    }\r\n\r\n    /*\r\n    * Stop exchange function - Plasmoid's call\r\n    */\r\n\r\n    function closeDEx(uint _order, address _alice, address _plasmoid, uint _ethAmount, uint _btcAmount, uint _limeAmount) public {\r\n        StopDEx(_order, _alice, msg.sender, _plasmoid, _ethAmount, _btcAmount, _limeAmount);\r\n    }\r\n\r\n}",
  "sourcePath": "C:\\Users\\Олег\\Google Диск\\limex\\DEx_test\\contracts\\DEx.sol",
  "compiler": {
    "name": "solc",
    "version": "0.4.18+commit.9cf6e910.Emscripten.clang"
  },
  "schemaVersion": "1.0.1",
  "updatedAt": "2017-12-09T10:24:56.167Z"
}