{
  "contractName": "DEx",
  "abi": [
    {
      "constant": true,
      "inputs": [],
      "name": "ORDER",
      "outputs": [
        {
          "name": "",
          "type": "uint256"
        }
      ],
      "payable": false,
      "stateMutability": "view",
      "type": "function"
    },
    {
      "constant": false,
      "inputs": [
        {
          "name": "_maker",
          "type": "address"
        },
        {
          "name": "_plasmoid",
          "type": "address"
        },
        {
          "name": "_ethAmount",
          "type": "uint256"
        },
        {
          "name": "_btcAmount",
          "type": "uint256"
        },
        {
          "name": "_limeAmount",
          "type": "uint256"
        }
      ],
      "name": "openDEx",
      "outputs": [
        {
          "name": "",
          "type": "uint16"
        }
      ],
      "payable": false,
      "stateMutability": "nonpayable",
      "type": "function"
    },
    {
      "constant": false,
      "inputs": [
        {
          "name": "_order",
          "type": "uint256"
        },
        {
          "name": "_plasmoid",
          "type": "address"
        },
        {
          "name": "_ethAmount",
          "type": "uint256"
        },
        {
          "name": "_btcAmount",
          "type": "uint256"
        },
        {
          "name": "_fee",
          "type": "uint256"
        }
      ],
      "name": "inDepo",
      "outputs": [],
      "payable": false,
      "stateMutability": "nonpayable",
      "type": "function"
    },
    {
      "constant": false,
      "inputs": [
        {
          "name": "_order",
          "type": "uint256"
        },
        {
          "name": "_dealer",
          "type": "address"
        }
      ],
      "name": "outDepo",
      "outputs": [],
      "payable": false,
      "stateMutability": "nonpayable",
      "type": "function"
    },
    {
      "constant": false,
      "inputs": [
        {
          "name": "_order",
          "type": "uint256"
        },
        {
          "name": "_maker",
          "type": "address"
        },
        {
          "name": "_taker",
          "type": "address"
        },
        {
          "name": "_ethAmount",
          "type": "uint256"
        },
        {
          "name": "_btcAmount",
          "type": "uint256"
        },
        {
          "name": "_limeAmount",
          "type": "uint256"
        }
      ],
      "name": "closeDEx",
      "outputs": [],
      "payable": false,
      "stateMutability": "nonpayable",
      "type": "function"
    },
    {
      "constant": true,
      "inputs": [
        {
          "name": "_order",
          "type": "uint256"
        },
        {
          "name": "_alice",
          "type": "address"
        },
        {
          "name": "_plasmoid",
          "type": "address"
        },
        {
          "name": "_ethAmount",
          "type": "uint256"
        },
        {
          "name": "_btcAmount",
          "type": "uint256"
        },
        {
          "name": "_fee",
          "type": "uint256"
        }
      ],
      "name": "VERSION",
      "outputs": [
        {
          "name": "",
          "type": "string"
        }
      ],
      "payable": false,
      "stateMutability": "view",
      "type": "function"
    },
    {
      "constant": true,
      "inputs": [
        {
          "indexed": true,
          "name": "_order",
          "type": "uint256"
        },
        {
          "indexed": true,
          "name": "maker",
          "type": "address"
        },
        {
          "indexed": false,
          "name": "taker",
          "type": "address"
        },
        {
          "indexed": false,
          "name": "plasmoid",
          "type": "address"
        },
        {
          "indexed": false,
          "name": "ethAmount",
          "type": "uint256"
        },
        {
          "indexed": false,
          "name": "btcAmount",
          "type": "uint256"
        },
        {
          "indexed": false,
          "name": "pledgeLIMEAmount",
          "type": "uint256"
        }
      ],
      "name": "StartDEx",
      "outputs": [
        {
          "name": "",
          "type": "string"
        }
      ],
      "payable": false,
      "stateMutability": "view",
      "type": "event",
      "anonymous": false
    },
    {
      "anonymous": false,
      "inputs": [
        {
          "indexed": true,
          "name": "_order",
          "type": "uint256"
        },
        {
          "indexed": false,
          "name": "maker",
          "type": "address"
        },
        {
          "indexed": false,
          "name": "taker",
          "type": "address"
        },
        {
          "indexed": false,
          "name": "plasmoid",
          "type": "address"
        },
        {
          "indexed": false,
          "name": "ethAmount",
          "type": "uint256"
        },
        {
          "indexed": false,
          "name": "btcAmount",
          "type": "uint256"
        },
        {
          "indexed": false,
          "name": "pledgeLIMEAmount",
          "type": "uint256"
        },
        {
          "indexed": false,
          "name": "fee",
          "type": "uint256"
        }
      ],
      "name": "StopDEx",
      "type": "event"
    },
    {
      "anonymous": false,
      "inputs": [
        {
          "indexed": true,
          "name": "_order",
          "type": "uint256"
        },
        {
          "indexed": true,
          "name": "maker",
          "type": "address"
        },
        {
          "indexed": false,
          "name": "taker",
          "type": "address"
        },
        {
          "indexed": true,
          "name": "plasmoid",
          "type": "address"
        },
        {
          "indexed": false,
          "name": "ethAmount",
          "type": "uint256"
        },
        {
          "indexed": false,
          "name": "btcAmount",
          "type": "uint256"
        },
        {
          "indexed": false,
          "name": "fee",
          "type": "uint256"
        }
      ],
      "name": "InDepo",
      "type": "event"
    },
    {
      "anonymous": false,
      "inputs": [
        {
          "indexed": true,
          "name": "_order",
          "type": "uint256"
        },
        {
          "indexed": true,
          "name": "_dealer",
          "type": "address"
        }
      ],
      "name": "OutDepo",
      "type": "event"
    },
    {
      "anonymous": false,
      "inputs": [
        {
          "indexed": false,
          "name": "_order",
          "type": "uint256"
        }
      ],
      "name": "OutDepo",
      "type": "event"
    }
  ],
  "bytecode": "0x606060405260008055341561001357600080fd5b610533806100226000396000f300606060405260043610610078576000357c0100000000000000000000000000000000000000000000000000000000900463ffffffff1680634d5e07fb1461007d57806374c1a945146100a65780637fc9ce9914610119578063a1e5cf8b1461013c578063f5c8a1c51461017e578063ffa1ad74146101fa575b600080fd5b341561008857600080fd5b610090610288565b6040518082815260200191505060405180910390f35b34156100b157600080fd5b610117600480803573ffffffffffffffffffffffffffffffffffffffff1690602001909190803573ffffffffffffffffffffffffffffffffffffffff1690602001909190803590602001909190803590602001909190803590602001909190505061028e565b005b341561012457600080fd5b61013a600480803590602001909190505061036a565b005b341561014757600080fd5b61017c600480803590602001909190803573ffffffffffffffffffffffffffffffffffffffff1690602001909190505061039a565b005b341561018957600080fd5b6101f8600480803590602001909190803573ffffffffffffffffffffffffffffffffffffffff1690602001909190803573ffffffffffffffffffffffffffffffffffffffff169060200190919080359060200190919080359060200190919080359060200190919050506103e2565b005b341561020557600080fd5b61020d6104ce565b6040518080602001828103825283818151815260200191508051906020019080838360005b8381101561024d578082015181840152602081019050610232565b50505050905090810190601f16801561027a5780820380516001836020036101000a031916815260200191505b509250505060405180910390f35b60005481565b6001600054016000819055508473ffffffffffffffffffffffffffffffffffffffff166000547f89b841109ffd2491980402d6703735199081fd766855d5534db7582f04a712643387878787604051808673ffffffffffffffffffffffffffffffffffffffff1673ffffffffffffffffffffffffffffffffffffffff1681526020018573ffffffffffffffffffffffffffffffffffffffff1673ffffffffffffffffffffffffffffffffffffffff1681526020018481526020018381526020018281526020019550505050505060405180910390a35050505050565b807f91c1b904ae27e44d7325e07baf8e32e7169d3aadb7cb29aa131bd8fd5d1cf28e60405160405180910390a250565b8073ffffffffffffffffffffffffffffffffffffffff16827f30c45a1279307dfa7215e29f70701460e328a0d748bb6d4635a01c80a39813eb60405160405180910390a35050565b857f2461e5512ed7d1d2b4d8fd2a8bc8e60878a5a934bd6bbbeb97726b73a7e94dac868633878787604051808773ffffffffffffffffffffffffffffffffffffffff1673ffffffffffffffffffffffffffffffffffffffff1681526020018673ffffffffffffffffffffffffffffffffffffffff1673ffffffffffffffffffffffffffffffffffffffff1681526020018573ffffffffffffffffffffffffffffffffffffffff1673ffffffffffffffffffffffffffffffffffffffff168152602001848152602001838152602001828152602001965050505050505060405180910390a2505050505050565b6040805190810160405280600381526020017f302e320000000000000000000000000000000000000000000000000000000000815250815600a165627a7a723058202c84c5926fc87d914c7476a3d88584189c047c7770ec176f9c104a1a62f188430029",
  "source": "/*\r\n\r\n  Copyright 2017 Limex inc.\r\n\r\n  Licensed under the Apache License, Version 2.0 (the \"License\");\r\n  you may not use this file except in compliance with the License.\r\n  You may obtain a copy of the License at\r\n\r\n    http://www.apache.org/licenses/LICENSE-2.0\r\n\r\n  Unless required by applicable law or agreed to in writing, software\r\n  distributed under the License is distributed on an \"AS IS\" BASIS,\r\n  WITHOUT WARRANTIES OR CONDITIONS OF ANY KIND, either express or implied.\r\n  See the License for the specific language governing permissions and\r\n  limitations under the License.\r\n\r\n*/\r\n\r\npragma solidity 0.4.18;\r\n\r\n/// @title DEx - Decentalized exchange of ETH/BTC by Limex protocol.\r\n/// @author Oleg Tomin - <ot@limex.io>\r\n/// Simple test for ETH/BTC crossshain direct exchange\r\n\r\ncontract DEx {\r\n\r\n    string constant public VERSION = \"0.2\";     // 09.12.2017\r\n\r\n    uint public ORDER = 0;  // Serial order number\r\n\r\n    event StartDEx(         // Record a log of all exchanges\r\n        uint indexed _order,\r\n        address indexed maker,\r\n        address taker,\r\n        address plasmoid,\r\n        uint ethAmount,\r\n        uint btcAmount,\r\n        uint pledgeLIMEAmount\r\n    );\r\n\r\n    event StopDEx(          //  Record a log of successful exchanges\r\n        uint indexed _order,\r\n        address maker,\r\n        address taker,\r\n        address plasmoid,\r\n        uint ethAmount,\r\n        uint btcAmount,\r\n        uint pledgeLIMEAmount\r\n    );\r\n\r\n    event InDepo(uint indexed _order);  //  Record a log of successful placements of pledges\r\n\r\n    event OutDepo(uint indexed _order, address indexed _dealer); //  Record a log of successful cancellations of pledges\r\n\r\n    /*\r\n    * Start exchange function - Bob's call\r\n    */\r\n\r\n    function openDEx(address _maker, address _plasmoid, uint _ethAmount, uint _btcAmount, uint _limeAmount) public {\r\n        ORDER = ORDER + 1;\r\n        StartDEx(ORDER, _maker, msg.sender, _plasmoid, _ethAmount, _btcAmount, _limeAmount);\r\n    }\r\n\r\n    /*\r\n    * Work with pledges functions - Plasmoid's call\r\n    */\r\n\r\n    function inDepo(uint _order) public {\r\n        InDepo(_order);\r\n    }\r\n\r\n    function outDepo(uint _order, address _dealer) public {\r\n        OutDepo(_order, _dealer);\r\n    }\r\n\r\n    /*\r\n    * Stop exchange function - Plasmoid's call\r\n    */\r\n\r\n    function closeDEx(uint _order, address _maker, address _taker, uint _ethAmount, uint _btcAmount, uint _limeAmount) public {\r\n        StopDEx(_order, _maker, _taker, msg.sender, _ethAmount, _btcAmount, _limeAmount);\r\n    }\r\n\r\n}",
  "sourcePath": "/eth/dex_test/contracts/DEx.sol",
  "compiler": {
    "name": "solc",
    "version": "0.4.18+commit.9cf6e910.Emscripten.clang"
  },
  "schemaVersion": "1.0.1",
  "updatedAt": "2017-12-13T08:44:33.648Z"
}